{
  "_format": "hh-sol-artifact-1",
  "contractName": "SupplyChain",
  "sourceName": "contracts/SupplyChain.sol",
  "abi": [
    {
      "inputs": [],
      "stateMutability": "nonpayable",
      "type": "constructor"
    },
    {
      "anonymous": false,
      "inputs": [
        {
          "indexed": true,
          "internalType": "address",
          "name": "party",
          "type": "address"
        },
        {
          "indexed": false,
          "internalType": "bool",
          "name": "enabled",
          "type": "bool"
        }
      ],
      "name": "Authorized",
      "type": "event"
    },
    {
      "anonymous": false,
      "inputs": [
        {
          "indexed": true,
          "internalType": "uint256",
          "name": "productId",
          "type": "uint256"
        },
        {
          "indexed": false,
          "internalType": "address",
          "name": "from",
          "type": "address"
        },
        {
          "indexed": false,
          "internalType": "address",
          "name": "to",
          "type": "address"
        }
      ],
      "name": "OwnershipTransferred",
      "type": "event"
    },
    {
      "anonymous": false,
      "inputs": [
        {
          "indexed": true,
          "internalType": "uint256",
          "name": "productId",
          "type": "uint256"
        },
        {
          "indexed": false,
          "internalType": "string",
          "name": "name",
          "type": "string"
        },
        {
          "indexed": false,
          "internalType": "address",
          "name": "manufacturer",
          "type": "address"
        }
      ],
      "name": "ProductCreated",
      "type": "event"
    },
    {
      "anonymous": false,
      "inputs": [
        {
          "indexed": true,
          "internalType": "uint256",
          "name": "productId",
          "type": "uint256"
        },
        {
          "indexed": false,
          "internalType": "enum SupplyChain.Status",
          "name": "status",
          "type": "uint8"
        },
        {
          "indexed": false,
          "internalType": "address",
          "name": "updatedBy",
          "type": "address"
        }
      ],
      "name": "StatusUpdated",
      "type": "event"
    },
    {
      "inputs": [
        {
          "internalType": "address",
          "name": "_party",
          "type": "address"
        },
        {
          "internalType": "bool",
          "name": "enabled",
          "type": "bool"
        }
      ],
      "name": "addAuthorizedParty",
      "outputs": [],
      "stateMutability": "nonpayable",
      "type": "function"
    },
    {
      "inputs": [],
      "name": "admin",
      "outputs": [
        {
          "internalType": "address",
          "name": "",
          "type": "address"
        }
      ],
      "stateMutability": "view",
      "type": "function"
    },
    {
      "inputs": [
        {
          "internalType": "address",
          "name": "",
          "type": "address"
        }
      ],
      "name": "authorizedParties",
      "outputs": [
        {
          "internalType": "bool",
          "name": "",
          "type": "bool"
        }
      ],
      "stateMutability": "view",
      "type": "function"
    },
    {
      "inputs": [
        {
          "internalType": "string",
          "name": "_name",
          "type": "string"
        },
        {
          "internalType": "string",
          "name": "_description",
          "type": "string"
        },
        {
          "internalType": "string",
          "name": "_location",
          "type": "string"
        }
      ],
      "name": "createProduct",
      "outputs": [
        {
          "internalType": "uint256",
          "name": "",
          "type": "uint256"
        }
      ],
      "stateMutability": "nonpayable",
      "type": "function"
    },
    {
      "inputs": [
        {
          "internalType": "uint256",
          "name": "_productId",
          "type": "uint256"
        }
      ],
      "name": "getProduct",
      "outputs": [
        {
          "components": [
            {
              "internalType": "uint256",
              "name": "id",
              "type": "uint256"
            },
            {
              "internalType": "string",
              "name": "name",
              "type": "string"
            },
            {
              "internalType": "string",
              "name": "description",
              "type": "string"
            },
            {
              "internalType": "address",
              "name": "manufacturer",
              "type": "address"
            },
            {
              "internalType": "address",
              "name": "currentOwner",
              "type": "address"
            },
            {
              "internalType": "enum SupplyChain.Status",
              "name": "status",
              "type": "uint8"
            },
            {
              "internalType": "uint256",
              "name": "timestamp",
              "type": "uint256"
            },
            {
              "internalType": "string",
              "name": "location",
              "type": "string"
            }
          ],
          "internalType": "struct SupplyChain.Product",
          "name": "",
          "type": "tuple"
        }
      ],
      "stateMutability": "view",
      "type": "function"
    },
    {
      "inputs": [
        {
          "internalType": "uint256",
          "name": "_productId",
          "type": "uint256"
        }
      ],
      "name": "getProductHistory",
      "outputs": [
        {
          "components": [
            {
              "internalType": "enum SupplyChain.Status",
              "name": "status",
              "type": "uint8"
            },
            {
              "internalType": "uint256",
              "name": "timestamp",
              "type": "uint256"
            },
            {
              "internalType": "address",
              "name": "updatedBy",
              "type": "address"
            },
            {
              "internalType": "string",
              "name": "location",
              "type": "string"
            },
            {
              "internalType": "string",
              "name": "notes",
              "type": "string"
            }
          ],
          "internalType": "struct SupplyChain.StatusHistory[]",
          "name": "",
          "type": "tuple[]"
        }
      ],
      "stateMutability": "view",
      "type": "function"
    },
    {
      "inputs": [],
      "name": "productCount",
      "outputs": [
        {
          "internalType": "uint256",
          "name": "",
          "type": "uint256"
        }
      ],
      "stateMutability": "view",
      "type": "function"
    },
    {
      "inputs": [
        {
          "internalType": "uint256",
          "name": "",
          "type": "uint256"
        },
        {
          "internalType": "uint256",
          "name": "",
          "type": "uint256"
        }
      ],
      "name": "productHistory",
      "outputs": [
        {
          "internalType": "enum SupplyChain.Status",
          "name": "status",
          "type": "uint8"
        },
        {
          "internalType": "uint256",
          "name": "timestamp",
          "type": "uint256"
        },
        {
          "internalType": "address",
          "name": "updatedBy",
          "type": "address"
        },
        {
          "internalType": "string",
          "name": "location",
          "type": "string"
        },
        {
          "internalType": "string",
          "name": "notes",
          "type": "string"
        }
      ],
      "stateMutability": "view",
      "type": "function"
    },
    {
      "inputs": [
        {
          "internalType": "uint256",
          "name": "",
          "type": "uint256"
        }
      ],
      "name": "products",
      "outputs": [
        {
          "internalType": "uint256",
          "name": "id",
          "type": "uint256"
        },
        {
          "internalType": "string",
          "name": "name",
          "type": "string"
        },
        {
          "internalType": "string",
          "name": "description",
          "type": "string"
        },
        {
          "internalType": "address",
          "name": "manufacturer",
          "type": "address"
        },
        {
          "internalType": "address",
          "name": "currentOwner",
          "type": "address"
        },
        {
          "internalType": "enum SupplyChain.Status",
          "name": "status",
          "type": "uint8"
        },
        {
          "internalType": "uint256",
          "name": "timestamp",
          "type": "uint256"
        },
        {
          "internalType": "string",
          "name": "location",
          "type": "string"
        }
      ],
      "stateMutability": "view",
      "type": "function"
    },
    {
      "inputs": [
        {
          "internalType": "uint256",
          "name": "_productId",
          "type": "uint256"
        },
        {
          "internalType": "address",
          "name": "_newOwner",
          "type": "address"
        }
      ],
      "name": "transferOwnership",
      "outputs": [],
      "stateMutability": "nonpayable",
      "type": "function"
    },
    {
      "inputs": [
        {
          "internalType": "uint256",
          "name": "_productId",
          "type": "uint256"
        },
        {
          "internalType": "enum SupplyChain.Status",
          "name": "_status",
          "type": "uint8"
        },
        {
          "internalType": "string",
          "name": "_location",
          "type": "string"
        },
        {
          "internalType": "string",
          "name": "_notes",
          "type": "string"
        }
      ],
      "name": "updateStatus",
      "outputs": [],
      "stateMutability": "nonpayable",
      "type": "function"
    }
  ],
  "bytecode": "0x608060405234801561001057600080fd5b50600480546001600160a01b03191633908117909155600081815260026020908152604091829020805460ff1916600190811790915591519182527f4c0079b9bcd37cd5d29a13938effd97c881798cbc6bd52a3026a29d94b27d1bf910160405180910390a26117cc806100856000396000f3fe608060405234801561001057600080fd5b50600436106100a95760003560e01c8063b8d2e1db11610071578063b8d2e1db1461014a578063b9db15b41461017d578063d768468b1461019d578063e0f6ef87146101be578063f2e5cf4f146101c7578063f851a440146101da57600080fd5b806329507f73146100ae57806329e5473f146100c35780633a7d2376146100d657806357a096a1146101035780637acc0b2014610123575b600080fd5b6100c16100bc366004611079565b610205565b005b6100c16100d1366004611148565b610316565b6100e96100e43660046111cc565b61052a565b6040516100fa95949392919061126c565b60405180910390f35b6101166101113660046112be565b610697565b6040516100fa91906112d7565b6101366101313660046112be565b61087a565b6040516100fa98979695949392919061138f565b61016d61015836600461140a565b60026020526000908152604090205460ff1681565b60405190151581526020016100fa565b61019061018b3660046112be565b610a6a565b6040516100fa919061142c565b6101b06101ab3660046114ea565b610cb3565b6040519081526020016100fa565b6101b060035481565b6100c16101d5366004611572565b610f4f565b6004546101ed906001600160a01b031681565b6040516001600160a01b0390911681526020016100fa565b3360009081526002602052604090205460ff168061022d57506004546001600160a01b031633145b6102525760405162461bcd60e51b8152600401610249906115ae565b60405180910390fd5b60008211801561026457506003548211155b6102a25760405162461bcd60e51b815260206004820152600f60248201526e125b9d985b1a59081c1c9bd91d58dd608a1b6044820152606401610249565b600082815260208181526040918290206004810180546001600160a01b031981166001600160a01b0387811691821790935585519290911680835293820152909285917f16b85f49bf01212961345d3016c9a531894accf62eb7680f2045d79185cc0ec0910160405180910390a250505050565b3360009081526002602052604090205460ff168061033e57506004546001600160a01b031633145b61035a5760405162461bcd60e51b8152600401610249906115ae565b60008411801561036c57506003548411155b6103aa5760405162461bcd60e51b815260206004820152600f60248201526e125b9d985b1a59081c1c9bd91d58dd608a1b6044820152606401610249565b600084815260208190526040902060048082018054869260ff60a01b1990911690600160a01b9084908111156103e2576103e26111ee565b0217905550426005820155600681016103fb848261165f565b50600160008681526020019081526020016000206040518060a0016040528086600481111561042c5761042c6111ee565b81524260208083019190915233604083015260608201879052608090910185905282546001818101855560009485529190932082516005909402018054929390929091839160ff191690836004811115610488576104886111ee565b02179055506020820151600182015560408201516002820180546001600160a01b0319166001600160a01b03909216919091179055606082015160038201906104d1908261165f565b50608082015160048201906104e6908261165f565b505050847f16ad05ce3d778c4a2ba55f55814ad9f3e606fe0c042972def94655ed8e1c31cc853360405161051b92919061171f565b60405180910390a25050505050565b6001602052816000526040600020818154811061054657600080fd5b6000918252602090912060059091020180546001820154600283015460038401805460ff90941696509194506001600160a01b03169291610586906115d6565b80601f01602080910402602001604051908101604052809291908181526020018280546105b2906115d6565b80156105ff5780601f106105d4576101008083540402835291602001916105ff565b820191906000526020600020905b8154815290600101906020018083116105e257829003601f168201915b505050505090806004018054610614906115d6565b80601f0160208091040260200160405190810160405280929190818152602001828054610640906115d6565b801561068d5780601f106106625761010080835404028352916020019161068d565b820191906000526020600020905b81548152906001019060200180831161067057829003601f168201915b5050505050905085565b606060016000838152602001908152602001600020805480602002602001604051908101604052809291908181526020016000905b8282101561086f576000848152602090206040805160a08101909152600584029091018054829060ff166004811115610707576107076111ee565b6004811115610718576107186111ee565b81526001820154602082015260028201546001600160a01b0316604082015260038201805460609092019161074c906115d6565b80601f0160208091040260200160405190810160405280929190818152602001828054610778906115d6565b80156107c55780601f1061079a576101008083540402835291602001916107c5565b820191906000526020600020905b8154815290600101906020018083116107a857829003601f168201915b505050505081526020016004820180546107de906115d6565b80601f016020809104026020016040519081016040528092919081815260200182805461080a906115d6565b80156108575780601f1061082c57610100808354040283529160200191610857565b820191906000526020600020905b81548152906001019060200180831161083a57829003601f168201915b505050505081525050815260200190600101906106cc565b505050509050919050565b6000602081905290815260409020805460018201805491929161089c906115d6565b80601f01602080910402602001604051908101604052809291908181526020018280546108c8906115d6565b80156109155780601f106108ea57610100808354040283529160200191610915565b820191906000526020600020905b8154815290600101906020018083116108f857829003601f168201915b50505050509080600201805461092a906115d6565b80601f0160208091040260200160405190810160405280929190818152602001828054610956906115d6565b80156109a35780601f10610978576101008083540402835291602001916109a3565b820191906000526020600020905b81548152906001019060200180831161098657829003601f168201915b5050505060038301546004840154600585015460068601805495966001600160a01b03948516969484169550600160a01b90930460ff16939192916109e7906115d6565b80601f0160208091040260200160405190810160405280929190818152602001828054610a13906115d6565b8015610a605780601f10610a3557610100808354040283529160200191610a60565b820191906000526020600020905b815481529060010190602001808311610a4357829003601f168201915b5050505050905088565b610a72610ff5565b6000828152602081815260409182902082516101008101909352805483526001810180549192840191610aa4906115d6565b80601f0160208091040260200160405190810160405280929190818152602001828054610ad0906115d6565b8015610b1d5780601f10610af257610100808354040283529160200191610b1d565b820191906000526020600020905b815481529060010190602001808311610b0057829003601f168201915b50505050508152602001600282018054610b36906115d6565b80601f0160208091040260200160405190810160405280929190818152602001828054610b62906115d6565b8015610baf5780601f10610b8457610100808354040283529160200191610baf565b820191906000526020600020905b815481529060010190602001808311610b9257829003601f168201915b505050918352505060038201546001600160a01b0390811660208301526004808401549182166040840152606090920191600160a01b90910460ff1690811115610bfb57610bfb6111ee565b6004811115610c0c57610c0c6111ee565b815260200160058201548152602001600682018054610c2a906115d6565b80601f0160208091040260200160405190810160405280929190818152602001828054610c56906115d6565b8015610ca35780601f10610c7857610100808354040283529160200191610ca3565b820191906000526020600020905b815481529060010190602001808311610c8657829003601f168201915b5050505050815250509050919050565b3360009081526002602052604081205460ff1680610cdb57506004546001600160a01b031633145b610cf75760405162461bcd60e51b8152600401610249906115ae565b60038054906000610d0783611745565b90915550506040805161010081018252600354808252602080830188815283850188905233606085018190526080850152600060a085018190524260c086015260e08501889052928352908290529290208151815591519091906001820190610d70908261165f565b5060408201516002820190610d85908261165f565b5060608201516003820180546001600160a01b03199081166001600160a01b039384161790915560808401516004808501805493841692909416918217845560a086015193926001600160a81b03191690911790600160a01b908490811115610df057610df06111ee565b021790555060c0820151600582015560e08201516006820190610e13908261165f565b50506003546000908152600160208181526040808420815160a08101835285815242818501523381840152606081018990528251808401909352600f83526e141c9bd91d58dd0818dc99585d1959608a1b838501526080810192909252805480850182559085529190932083516005909202018054939450929091839160ff191690836004811115610ea757610ea76111ee565b02179055506020820151600182015560408201516002820180546001600160a01b0319166001600160a01b0390921691909117905560608201516003820190610ef0908261165f565b5060808201516004820190610f05908261165f565b5050506003547faf6ffb6277511513e7d579327cc1fc57f0266df2fb11a60b13487b8c9cd2c3888533604051610f3c92919061176c565b60405180910390a2506003549392505050565b6004546001600160a01b03163314610f965760405162461bcd60e51b815260206004820152600a60248201526927b7363c9030b236b4b760b11b6044820152606401610249565b6001600160a01b038216600081815260026020908152604091829020805460ff191685151590811790915591519182527f4c0079b9bcd37cd5d29a13938effd97c881798cbc6bd52a3026a29d94b27d1bf910160405180910390a25050565b60405180610100016040528060008152602001606081526020016060815260200160006001600160a01b0316815260200160006001600160a01b0316815260200160006004811115611049576110496111ee565b815260200160008152602001606081525090565b80356001600160a01b038116811461107457600080fd5b919050565b6000806040838503121561108c57600080fd5b8235915061109c6020840161105d565b90509250929050565b634e487b7160e01b600052604160045260246000fd5b600082601f8301126110cc57600080fd5b813567ffffffffffffffff808211156110e7576110e76110a5565b604051601f8301601f19908116603f0116810190828211818310171561110f5761110f6110a5565b8160405283815286602085880101111561112857600080fd5b836020870160208301376000602085830101528094505050505092915050565b6000806000806080858703121561115e57600080fd5b8435935060208501356005811061117457600080fd5b9250604085013567ffffffffffffffff8082111561119157600080fd5b61119d888389016110bb565b935060608701359150808211156111b357600080fd5b506111c0878288016110bb565b91505092959194509250565b600080604083850312156111df57600080fd5b50508035926020909101359150565b634e487b7160e01b600052602160045260246000fd5b6005811061122257634e487b7160e01b600052602160045260246000fd5b9052565b6000815180845260005b8181101561124c57602081850181015186830182015201611230565b506000602082860101526020601f19601f83011685010191505092915050565b6112768187611204565b84602082015260018060a01b038416604082015260a0606082015260006112a060a0830185611226565b82810360808401526112b28185611226565b98975050505050505050565b6000602082840312156112d057600080fd5b5035919050565b60006020808301818452808551808352604092508286019150828160051b87010184880160005b8381101561138157603f19898403018552815160a061131e858351611204565b81890151858a0152878201516001600160a01b03168886015260608083015181870183905261134f83880182611226565b925050506080808301519250858203818701525061136d8183611226565b9689019694505050908601906001016112fe565b509098975050505050505050565b60006101008a83528060208401526113a98184018b611226565b905082810360408401526113bd818a611226565b6001600160a01b0389811660608601528816608085015290506113e360a0840187611204565b8460c084015282810360e08401526113fb8185611226565b9b9a5050505050505050505050565b60006020828403121561141c57600080fd5b6114258261105d565b9392505050565b602081528151602082015260006020830151610100806040850152611455610120850183611226565b91506040850151601f19808685030160608701526114738483611226565b93506060870151915061149160808701836001600160a01b03169052565b60808701516001600160a01b03811660a0880152915060a087015191506114bb60c0870183611204565b60c087015160e087015260e08701519150808685030183870152506114e08382611226565b9695505050505050565b6000806000606084860312156114ff57600080fd5b833567ffffffffffffffff8082111561151757600080fd5b611523878388016110bb565b9450602086013591508082111561153957600080fd5b611545878388016110bb565b9350604086013591508082111561155b57600080fd5b50611568868287016110bb565b9150509250925092565b6000806040838503121561158557600080fd5b61158e8361105d565b9150602083013580151581146115a357600080fd5b809150509250929050565b6020808252600e908201526d139bdd08185d5d1a1bdc9a5e995960921b604082015260600190565b600181811c908216806115ea57607f821691505b60208210810361160a57634e487b7160e01b600052602260045260246000fd5b50919050565b601f82111561165a57600081815260208120601f850160051c810160208610156116375750805b601f850160051c820191505b8181101561165657828155600101611643565b5050505b505050565b815167ffffffffffffffff811115611679576116796110a5565b61168d8161168784546115d6565b84611610565b602080601f8311600181146116c257600084156116aa5750858301515b600019600386901b1c1916600185901b178555611656565b600085815260208120601f198616915b828110156116f1578886015182559484019460019091019084016116d2565b508582101561170f5787850151600019600388901b60f8161c191681555b5050505050600190811b01905550565b6040810161172d8285611204565b6001600160a01b039290921660209190910152919050565b60006001820161176557634e487b7160e01b600052601160045260246000fd5b5060010190565b60408152600061177f6040830185611226565b905060018060a01b0383166020830152939250505056fea2646970667358221220b167cd60539522860f5ab0846899b9ca421452d614a9ae9c2c69f6e32994794e64736f6c63430008140033",
  "linkReferences": {},
  "deployedLinkReferences": {}
}